:1000000002242A1200361221007C287D247A017BEA
:1000100053E4FF12148D120036E5AF549F4440F5AF
:10002000AF43870280F0EC120EDBED900001020E70
:01003000EDE2
:10003300022802C2A0C294C282C2A122D2A0D29438
:05004300D282D2A122CF
:10004B000227E3C200E4900199F0A3F0F9A3C9F0F1
:10005B00A3F0A3E9F0A3E4F0A3F0A3F0F99001A3BC
:10006B00C9F0A3F0A3E9F0D2A1D2A07C287D247A19
:10007B00017B537F0112148D9001AA7440F0A3E40D
:10008B00F0A3F0A3F0A37439F0A3749AF07B017A78
:10009B000179597F0A121857900158EFF060CC90F4
:1000AB000159E0900152F01211C500FE000105400C
:1000BB0000F58000FE9000ECA0014BC1019AC20339
:1000CB0008C30412C4053FC50546C605F0C7073370
:1000DB00C800E3DD000007787B017A017959021C27
:1000EB009A7B017A017959021B407B017A0179597C
:1000FB000224B69000907404F0227B017A017959A6
:10010B00900088EBF0A3EAF0A3E9F0900001120F46
:10011B00BBFF900140E065F07003A3E06F6003024A
:10012B0007787C287D247A017B537F0212148D7B08
:10013B00017A00799D9001AA740C02071D020778C1
:10014B007B017A017959900088EBF0A3EAF0A3E9DF
:10015B00F0900001120FBBFF900140E065F07003BF
:10016B00A3E06F60030200767B017A0179567D0272
:10017B00FC12252A7C287D247A017B537F021214E2
:10018B008D7B017A0179569001AA740202071D7BBF
:10019B00017A01795990013DEBF0A3EAF0A3E9F064
:1001AB00900004120FBBFF900140E065F07003A3B9
:1001BB00E06F60030200767C287D247A017B537FFD
:1001CB000212148D90013DE0FBA3E0FAA3E0F9903D
:1001DB000001120EAE14601A14602714603424034D
:1001EB00703E90019B7401F0A37401F0A37432F084
:1001FB00802E90019B7401F0A37400F0A3749DF00A
:10020B00801E90019B7401F0A37400F0A374AEF0F8
:10021B00800E90019B7401F0A37400F0A374AAF0FC
:10022B007B017A01795990019EEBF0A3EAF0A3E9E7
:10023B00F0E4120EDB90019F75F001120F64900138
:10024B003DE0FBA3E0FAA3E0F9900003120EAE250C
:10025B00E09001A1F0E4A3F09001A1E0FFA3E0C3C3
:10026B009F503A90019BE0FBA3E0FAA3E0F9120E3A
:10027B0095FF90019EE0FBA3E0FAA3E0F9EF120ECD
:10028B00DB90019FE475F001120F6490019CE47503
:10029B00F001120F649001A2E004F080BB900140CA
:1002AB00E0FF90019EE0FBA3E0FAA3E0F9EF120E52
:1002BB00DB90019FE475F001120F64900141E0FFA8
:1002CB0090019EE0FBA3E0FAA3E0F9EF120EDB7BBB
:1002DB00017A0179599001A1E024039001AAF07FE2
:1002EB00071221FD7C287D247A017B537F01121498
:1002FB008D90019BE4F0A3F0A3F00200767B017AD2
:10030B00017959900148EBF0A3EAF0A3E9F09000D2
:10031B0005120FBBFF900140E065F07003A3E06F87
:10032B0060030200767C287D247A017B537F0212C6
:10033B00148D900148E0FBA3E0FAA3E0F9900001D3
:10034B00120EAE14603014603D14604A24037054D6
:10035B009001A37401F0A37401F0A37432F0900127
:10036B0048E0FBA3E0FAA3E0F9900002120EAEB452
:10037B000132D2A1802E9001A37401F0A37400F07E
:10038B00A374A1F0801E9001A37401F0A37400F07C
:10039B00A374AEF0800E9001A37401F0A37400F06F
:1003AB00A374AAF0900148E0FBA3E0FAA3E0F99054
:1003BB000002120EAE75F002A4FF9001A4E5F08FBF
:1003CB00F0120F64900003120FBBFF9001A3E0FB30
:1003DB00A3E0FAA3E0F9E5F08FF0120FF39001A37D
:1003EB00E4F0A3F0A3F0900142F0900140E0FFA3F2
:1003FB00E0900143CFF0A3EFF07B017A01794290BB
:10040B0001AA740302071D7B017A01795990014BF4
:10041B00EBF0A3EAF0A3E9F0900004120FBBFF90FE
:10042B000140E065F07003A3E06F600302007620EB
:10043B000003020507C20090014BE0FBA3E0FAA307
:10044B00E0F9900001120FBBFF900134E065F070F2
:10045B0003A3E06F7044900132E0FEA3E0FF900134
:10046B0099E06E7003A3E06F70309000907402F00F
:10047B007C287D247A017B53FF12148D7B017A013A
:10048B0079409001AA7402F07F071221FD7C287D30
:10049B00247A017B537F0102148D90014BE0FBA367
:1004AB00E0FAA3E0F9900001120FBB45F070449005
:1004BB00009704F0E4A3F0900140E0FFA3E090006C
:1004CB0099CFF0A3EFF07C287D247A017B537F0238
:1004DB0012148D7B017A0079979001AA7406F07F34
:1004EB00071221FD7C287D247A017B537F01121496
:1004FB008D80419000907401F0020076D200900143
:10050B004BE0FBA3E0FAA3E0F9900001120FBBFF55
:10051B00900199E5F0F0A3EFF07C287D247A017B24
:10052B00537F0212148D7B017A0179409001AA74DA
:10053B000202071D9000907403F0227B017A01796F
:10054B005990008BEBF0A3EAF0A3E9F090000312B3
:10055B000FBBFF900140E065F07003A3E06F704D9F
:10056B0090008BE0FBA3E0FAA3E0F9900001120FDF
:10057B00BB64EE7004E5F064AC70327C287D247AA9
:10058B00017B537F0212148D7B017A017956900106
:10059B00AA7402F07F071221FD7C287D247A017B4F
:1005AB00537F0112148D9000907406F02290008BF3
:1005BB00E0FBA3E0FAA3E0F9900003120FBBFF905E
:1005CB000140E065F07003A3E06F600302007690DA
:1005DB000001120FBB64EE7004E5F064AC70030213
:1005EB0000760207789001487401F0A37401F0A320
:1005FB007459F0900158E0FD2457F582E43401F56D
:10060B0083E07F00FE74582DF582E43401F583E01E
:10061B002FFFE43EFE900140E06E7003A3E06F609D
:10062B00030200767C287D247A017B537F0212140F
:10063B008D90015AE014601A14602714603424035F
:10064B00703E9001A37401F0A37401F0A37432F017
:10065B00802E9001A37401F0A37400F0A374A1F099
:10066B00801E9001A37401F0A37400F0A374AEF08C
:10067B00800E9001A37401F0A37400F0A374AAF090
:10068B0090015BE075F002A4FF9001A4E5F08FF000
:10069B00120F64E49001A2F090015CE0FF9001A2C4
:1006AB00E0C39F5046E0FD25E0245DF582E4340174
:1006BB00F583E0FEED25E0245EF582E43401F5835D
:1006CB00E07C002400FFEC3EF99001A3E0FBA3E0EB
:1006DB00FAA3E0C98FF0120FF39001A4E475F002B6
:1006EB00120F649001A2E004F080AD9001A3E4F03E
:1006FB00A3F0A3F0900142F0900140E0FFA3E09043
:10070B000143CFF0A3EFF07B017A0179429001AA6C
:10071B007403F07F071221FD7C287D247A017B5323
:10072B007F0112148D0200767B017A0179599000BA
:10073B0091EBF0A3EAF0A3E9F0900004120FBBFFDA
:10074B00900140E0FCA3E0FD6F7003EC65F07003DB
:10075B0002007690013AE0FBA3E0FAA3E0F99000E7
:10076B0005120FBB6D7003EC65F0020076900090E4
:10077B007401F022C200E4900199F0A3F0F9A3C92F
:10078B00F0A3F0A3E9F0A3E4F0A3F0A3F0F9900138
:10079B00A2C9F0A3F0A3E9F0D2A1D282020C5E9021
:1007AB0001AA7440F0A3E4F0A3F0A3F0A37439F012
:1007BB00A3749AF07B017A0179597F0A121857902A
:1007CB000158EFF060D9900159E0900152F01211ED
:1007DB00C5082500082C40081C800825900813A08C
:1007EB000878C108CDC20A34C30B2EC40C6EC50CDD
:1007FB0075C60D1EC70D53C8080ADD00000D987B8A
:10080B00017A017959021C9A7B017A017959021BF1
:10081B00407B017A0179590224B69000907404F060
:10082B00227B017A017959900088EBF0A3EAF0A3BF
:10083B00E9F0900001120FBBFF900140E065F070F2
:10084B0003A3E06F6003020D987C287D247A017B63
:10085B00537F0212148D7B017A00799D9001AA744B
:10086B000CF07F071221FD020C5E020D987B017AC2
:10087B00017959900088EBF0A3EAF0A3E9F090001E
:10088B0001120FBBFF900140E065F07003A3E06F16
:10089B0060030207AA7B017A0179567D02FC1225BF
:1008AB002A7C287D247A017B537F0212148D7B01D5
:1008BB007A0179569001AA7402F07F071221FD028A
:1008CB000C5E7B017A01795990013DEBF0A3EAF0C4
:1008DB00A3E9F0900004120FBBFF900140E065F01C
:1008EB007003A3E06F60030207AA7C287D247A01C2
:1008FB007B537F0212148D90013DE0FBA3E0FAA322
:10090B00E0F9900001120EAE14601A146027146007
:10091B00342403703E90019B7401F0A37401F0A387
:10092B007432F0802E90019B7401F0A37400F0A33D
:10093B00749DF0801E90019B7401F0A37400F0A3D2
:10094B0074AEF0800E90019B7401F0A37400F0A3C1
:10095B0074AAF07B017A01795990019EEBF0A3EA1E
:10096B00F0A3E9F0E4120EDB90019F75F001120F7A
:10097B006490013DE0FBA3E0FAA3E0F990000312C1
:10098B000EAE25E09001A1F0E4FF9001A1E0FEEF97
:10099B00C39E503590019BE0FBA3E0FAA3E0F91254
:1009AB000E95FE90019EE0FBA3E0FAA3E0F9EE1298
:1009BB000EDB90019FE475F001120F6490019CE433
:1009CB0075F001120F640F80C1900140E0FF9001A0
:1009DB009EE0FBA3E0FAA3E0F9EF120EDB90019F80
:1009EB00E475F001120F64900141E0FF90019EE06D
:1009FB00FBA3E0FAA3E0F9EF120EDB7B017A01799E
:100A0B00599001A1E024039001AAF07F071221FD68
:100A1B007C287D247A017B537F0112148D90019BDE
:100A2B00E4F0A3F0A3F00207AA7B017A01795990B5
:100A3B000148EBF0A3EAF0A3E9F0900005120FBB1D
:100A4B00FF900140E065F07003A3E06F60030207C5
:100A5B00AA7C287D247A017B537F0212148D90018E
:100A6B0048E0FBA3E0FAA3E0F9900001120EAE14EC
:100A7B00601A1460271460342403703E9001A27432
:100A8B0001F0A37401F0A37432F0802E9001A274D4
:100A9B0001F0A37400F0A3749DF0801E9001A2746A
:100AAB0001F0A37400F0A374AEF0800E9001A27459
:100ABB0001F0A37400F0A374AAF0900148E0FBA32B
:100ACB00E0FAA3E0F9900002120EAE75F002A4FF5B
:100ADB009001A3E5F08FF0120F64900003120FBB8F
:100AEB00FF9001A2E0FBA3E0FAA3E0F9E5F08FF0A1
:100AFB00120FF39001A2E4F0A3F0A3F0900142F0E7
:100B0B00900140E0FFA3E0900143CFF0A3EFF07B17
:100B1B00017A0179429001AA7403F07F071221FD3B
:100B2B00020C5E7B017A01795990014BEBF0A3EA41
:100B3B00F0A3E9F0900004120FBBFF900140E065B9
:100B4B00F07003A3E06F60030207AA200003020CFE
:100B5B0023C20090014BE0FBA3E0FAA3E0F9900065
:100B6B0001120FBBFF900134E065F07003A3E06F3F
:100B7B007044900132E0FEA3E0FF900199E06E70AB
:100B8B0003A3E06F70309000907402F07C287D24FA
:100B9B007A017B53FF12148D7B017A01794090010E
:100BAB00AA7402F07F071221FD7C287D247A017B39
:100BBB00537F0102148D90014BE0FBA3E0FAA3E0FD
:100BCB00F9900001120FBB45F0704490009704F0B0
:100BDB00E4A3F0900140E0FFA3E0900099CFF0A3D5
:100BEB00EFF07C287D247A017B537F0212148D7BDE
:100BFB00017A0079979001AA7406F07F071221FD04
:100C0B007C287D247A017B537F0112148D805490B4
:100C1B0000907401F00207AAD20090014BE0FBA3F5
:100C2B00E0FAA3E0F9900001120FBBFF900199E5E8
:100C3B00F0F0A3EFF07C287D247A017B537F021226
:100C4B00148D7B017A0179409001AA7402F07F0721
:100C5B001221FD7C287D247A017B537F0112148D98
:100C6B000207AA9000907403F0227B017A01795954
:100C7B0090008BEBF0A3EAF0A3E9F0900003120FC6
:100C8B00BBFF900140E065F07003A3E06F704D90E7
:100C9B00008BE0FBA3E0FAA3E0F9900001120FBB7D
:100CAB0064EE7004E5F064AC70327C287D247A012C
:100CBB007B537F0212148D7B017A0179569001AA26
:100CCB007402F07F071221FD7C287D247A017B536F
:100CDB007F0112148D9000907406F02290008BE02F
:100CEB00FBA3E0FAA3E0F9900003120FBBFF900106
:100CFB0040E065F07003A3E06F60030207AA900069
:100D0B0001120FBB64EE7004E5F064AC70030207D4
:100D1B00AA807A7B017A01795990013AEBF0A3EA28
:100D2B00F0A3E9F0900005120FBBFFAEF09001406D
:100D3B00E0FCA3E0FD6F7002EC6E70030207AAEDFE
:100D4B006F7002EC6E0207AA7B017A017959900051
:100D5B0091EBF0A3EAF0A3E9F0900004120FBBFFB4
:100D6B00900140E0FCA3E0FD6F7003EC65F07003B5
:100D7B000207AA90013AE0FBA3E0FAA3E0F9900086
:100D8B0005120FBB6D7003EC65F00207AA90009083
:100D9B007401F022E709F608DFFA8046E709F2084A
:100DAB00DFFA803E88828C83E709F0A3DFFA80327A
:100DBB00E309F608DFFA8078E309F208DFFA8070BE
:100DCB0088828C83E309F0A3DFFA806489828A83AB
:100DDB00E0A3F608DFFA805889828A83E0A3F20841
:100DEB00DFFA804C80D280FA80C680D4806980F292
:100DFB008033801080A680EA809A80A880DA80E217
:100E0B0080CA803389828A83ECFAE493A3C8C582B3
:100E1B00C8CCC583CCF0A3C8C582C8CCC583CCDFF6
:100E2B00E9DEE7800D89828A83E493A3F608DFF974
:100E3B00ECFAA9F0EDFB2289828A83ECFAE0A3C8D5
:100E4B00C582C8CCC583CCF0A3C8C582C8CCC5832A
:100E5B00CCDFEADEE880DB89828A83E493A3F208A5
:100E6B00DFF980CC88F0EF60010E4E60C388F0EDA7
:100E7B002402B4040050B9F582EB2402B4040050F0
:100E8B00AF2323458223900DEF73BB010689828A22
:100E9B0083E0225002E722BBFE02E32289828A838F
:100EAB00E49322BB010CE58229F582E5833AF583B5
:100EBB00E0225006E92582F8E622BBFE06E92582F0
:100ECB00F8E222E58229F582E5833AF583E4932261
:100EDB00BB010689828A83F0225002F722BBFE01F6
:100EEB00F322F8BB010DE58229F582E5833AF58300
:100EFB00E8F0225006E92582C8F622BBFE05E9255B
:100F0B0082C8F222BC000BBE0029EF8DF084FFAD2E
:100F1B00F022E4CCF875F008EF2FFFEE33FEEC3344
:100F2B00FCEE9DEC984005FCEE9DFE0FD5F0E9E440
:100F3B00CEFD22EDF8F5F0EE8420D21CFEADF0755F
:100F4B00F008EF2FFFED33FD4007985006D5F0F278
:100F5B0022C398FD0FD5F0EA22C5F0F8A3E028F0E4
:100F6B00C5F0F8E582158270021583E038F022A3F4
:100F7B00F8E0C5F025F0F0E582158270021583E0EC
:100F8B00C838F0E822BB010A89828A83E0F5F0A316
:100F9B00E022500687F009E71922BBFE07E3F5F0C4
:100FAB0009E3192289828A83E493F5F07401932271
:100FBB00BB0110E58229F582E5833AF583E0F5F074
:100FCB00A3E0225009E92582F886F008E622BBFE51
:100FDB000AE92582F8E2F5F008E222E5832AF58397
:100FEB00E993F5F0A3E99322BB010A89828A83F086
:100FFB00E5F0A3F0225006F709A7F01922BBFE0675
:10100B00F3E5F009F31922E88FF0A4CC8BF0A42CB4
:10101B00FCE98EF0A42CFC8AF0EDA42CFCEA8EF0FB
:10102B00A4CDA8F08BF0A42DCC3825F0FDE98FF0E2
:10103B00A42CCD35F0FCEB8EF0A4FEA9F0EB8FF0D9
:10104B00A4CFC5F02ECD39FEE43CFCEAA42DCE3561
:10105B00F0FDE43CFC2275F008758200EF2FFFEEEB
:10106B0033FECD33CDCC33CCC58233C5829BED9AC9
:10107B00EC99E58298400CF582EE9BFEED9AFDEC27
:10108B0099FC0FD5F0D6E4CEFBE4CDFAE4CCF9A86D
:10109B008222B800C1B90059BA002DEC8BF084CF75
:1010AB00CECDFCE5F0CBF97818EF2FFFEE33FEED4C
:1010BB0033FDEC33FCEB33FB10D703994004EB9976
:1010CB00FB0FD8E5E4F9FA227818EF2FFFEE33FE89
:1010DB00ED33FDEC33FCC933C910D7059BE99A40BE
:1010EB0007EC9BFCE99AF90FD8E0E4C9FAE4CCFBD6
:1010FB002275F010EF2FFFEE33FEED33FDCC33CC2A
:10110B00C833C810D7079BEC9AE899400AED9BFDB2
:10111B00EC9AFCE899F80FD5F0DAE4CDFBE4CCFAC5
:10112B00E4C8F922EB9FF5F0EA9E42F0E99D42F00C
:10113B00E89C45F022E8600FECC313FCED13FDEEC9
:10114B0013FEEF13FFD8F1227401FF3395E0FEFD80
:10115B00FCA3A3A3E0CF2FF0E582158270021583C9
:10116B00E0CE3EF0E582158270021583E0CD3DF0B6
:10117B00E582158270021583E0CC3CF022ECF0A3E3
:10118B00EDF0A3EEF0A3EFF022A8828583F0D083DD
:10119B00D0821211AB1211AB1211AB1211ABE47363
:1011AB00E493A3C583C5F0C583C8C582C8F0A3C5A6
:1011BB0083C5F0C583C8C582C822D083D082F8E42A
:1011CB00937012740193700DA3A393F8740193F5AC
:1011DB00828883E4737402936860EFA3A3A380DF18
:1011EB00E5092582F582E5083583F583B508048585
:1011FB0082092210AF06858209F50822858209F53E
:10120B0008D2AF22E5092582F582E5083583F583FF
:10121B002290FFFF1211EBEFF090FFFD1211EBE4A8
:10122B00FFFE7D01FC90000412120FE0F8A3E0F921
:10123B00A3E0FAA3E0FBC312112F90000840551254
:10124B00120FE0C4F854F0C868FEA3E0C4540F4872
:10125B00FFE4FCFDC004C005C006C00790000412EB
:10126B00120FE0FCA3E0FDA3E0FEA3E0FF78041265
:10127B001140D003D002D001D000121012EF24F293
:10128B00FFEE3401FEE43DFDE43CFCE47BE47A0339
:10129B00F9F8803612120FE0FEA3E0FFE4FCFD909C
:1012AB00000412120FE0F8A3E0F9A3E0FAA3E0FBAD
:1012BB00121012EF240CFFEE34F2FEED3401FDE4BC
:1012CB003CFC7B187AE47903780012109D900004A3
:1012DB0012120F12118890000412120FE0FCA3E0FF
:1012EB00FDA3E0FEA3E0FFEC4D4E4F602890000401
:1012FB0012120FE0FCA3E0FDA3E0FEA3E024FFFF2E
:10130B00EE34FFFEED34FFFDEC34FFFC90000412D5
:10131B00120F121188850883850982A3A3E4F0902C
:10132B00000312120FE0FB30E13E90000412120F8B
:10133B00E0FCA3E0FDA3E0FEE4FFEC4D4E6007E410
:10134B00FEFDFC02148790000412120FA3A3A3E06E
:10135B00850883850982A3F08508838509827480BB
:10136B00F0A3A37401F0803C90000412120FE0FC78
:10137B00A3E0FDE4FFFEEC4D6006E4FDFC021487E8
:10138B0090000412120FA3A3E0FEEE8508838509DB
:10139B0082A3F090000412120FA3A3A3E08508838D
:1013AB00850982F0EB30E03B90000312120FE03026
:1013BB00E20753917FD2EBD2AF850883850982A3D5
:1013CB00E0F5AB850883850982E0F5AD850883855B
:1013DB000982A3A3E025E025E0FFE5A954F34FF52F
:1013EB00A9803590000312120FE030E2075391DF12
:1013FB00D2E9D2AF850883850982A3E0F5AA8508D7
:10140B0083850982E0F5ACE5A954FCFF850883854B
:10141B000982A3A3E04FF5A990000412120FE0FC80
:10142B00A3E0FDA3E0FEA3E02401FFE43EFEE43DC8
:10143B00FDE43CFC7B187AE479037800121012C0AF
:10144B0004C005C006C00790000812120FE0FEA3EF
:10145B00E0FBAA06E4F9F8D007D006D005D00412B9
:10146B00109D90000412120F12118890000412129A
:10147B000FE0FCA3E0FDA3E0FEA3E0FF90000A0257
:10148B0011EB9001A6EAF0A3EBF0A907AE04AF05B0
:10149B00E4FDE9700575C838FF22E4FC0C2FF582DA
:1014AB00E43EF583E4939001B7F0F5DB9001B8E0EF
:1014BB0030E00A54E0FBE5DB541F4BF5DB9001B643
:1014CB00E030E00A5418FBE5DB54E74BF5DBAB04EB
:1014DB000CEF2BF582E43EF583E493F5DAAB040CC9
:1014EB00EF2BF582E43EF583E493F5D9AB040CEFD7
:1014FB002BF582E43EF583E493F5CCAB040CEF2B98
:10150B00F582E43EF583E493F5CBAB040CEF2BF5BE
:10151B0082E43EF583E493F5CAAB040CEF2BF58222
:10152B00E43EF583E493F5CFAB040CEF2BF582E4AB
:10153B003EF583E493F5CEAB040CEF2BF582E43E42
:10154B00F583E493F5CDAB040CEF2BF582E43EF57C
:10155B0083E493F5EBAB040CEF2BF582E43EF583C0
:10156B00E493F5EAE964017046AB040CEF2BF582CA
:10157B00E43EF583E493F5E30C75C8309001A6E0E7
:10158B00FAA3E0F5828A83E04410F5FE9001A6E011
:10159B00FAA3E0F5828A83A3E04420F5FFAB040CA9
:1015AB00EF2BF582E43EF583E493F5E10C80380CE8
:1015BB00AB040CEF2BF582E43EF583E493F5E37576
:1015CB00C8F09001A6E0FAA3E0F5828A83A3A3E01A
:1015DB004410F5FE75FF3B0CAB040CEF2BF582E4CE
:1015EB003EF583E493F5E1AB040CEF2BF582E43E7F
:1015FB00F583E493F5EE7B507A00EB1B70011AEB4D
:10160B004A70F77A7F7BFEE5E420E012D3EB94007F
:10161B00EA648094804007EB1B70EC1A80E9E5E4E8
:10162B0030E0047D01804D43E5807A7F7BFEE5E56C
:10163B0020E312D3EB9400EA648094804007EB1B09
:10164B0070EC1A80E953E57F7A7F7BFEE5E420E0BE
:10165B0012D3EB9400EA648094804007EB1B70EC90
:10166B001A80E9E5E430E0047D02800853ECFE4388
:10167B00EC01E4FDAB040CEF2BF582E43EF583E4C7
:10168B00939001B9F0F5E29001BAE06002F5E2AB9C
:10169B00040CEF2BF582E43EF583E493F5DCEF2CA1
:1016AB00F582E43EF583E493F5E6AF05227A4579BE
:1016BB00007BFF900199EBF0A3EAF0A3E9F0120F86
:1016CB0090FF900151F090019AE475F002120F64B3
:1016DB00EF602890FFFE1211EB7439F0A3749AF0AF
:1016EB0090FFFC1211EB1211940000C3507F0412F7
:1016FB00121CD2E9C2F9D2AF43A902900199E0FBC7
:10170B00A3E0FAA3E0F9120F90FF900132E5F0F09D
:10171B00A3EFF090019AE475F002120F6490019917
:10172B00E0FBA3E0FAA3E0F9120F90FF900134E580
:10173B00F0F0A3EFF090019AE475F002120F6490B1
:10174B000199E0FBA3E0FAA3E0F9120F90FF9001DF
:10175B0036E5F0F0A3EFF090019AE475F002120F6A
:10176B0064900199E0FBA3E0FAA3E0F9120F90FF5C
:10177B00900138E5F0F0A3EFF090019AE475F002D8
:10178B00120F64E4FF900199E0FBA3E0FAA3E0F9E8
:10179B00120F90FDEF25E024A1F582E43400F583D0
:1017AB00E5F0F0A3EDF090019AE475F002120F64EE
:1017BB000FEFB404D0E4FF900199E0FBA3E0FAA390
:1017CB00E0F9120F90FDEF25E024AEF582E4340032
:1017DB00F583E5F0F0A3EDF090019AE475F00212B9
:1017EB000F640FEFB402D0E4FF900199E0FBA3E08C
:1017FB00FAA3E0F9120F90FDEF25E024AAF582E49D
:10180B003400F583E5F0F0A3EDF090019AE475F068
:10181B0002120F640FEFB402D07A0079007B0190B3
:10182B000199EBF0A3EAF0A3E9F0E475F001120FD4
:10183B00F353AF9F7E457F007C007D007B9A7A3906
:10184B001222F8E5AF549F4440F5AF229001A6EF6A
:10185B00F0A3EBF0A3EAF0A3E9F09001AEE0FEA356
:10186B00E0FF90FFFE1211EBEEF0A3EFF090FFFC08
:10187B001211EB121194000027107F0112121C534E
:10188B00917F43A90875D39075D45AE5DA54034474
:10189B0024F5DAC2E85391EF5391EF53C8DFE5918A
:1018AB0030E71253917F9001A6E0600914F07005A8
:1018BB0074FFF08008E59130E4E45391EFE490017C
:1018CB00B0F09001A6E0F470030219CEE5DA549F54
:1018DB004460F5DAE59130E4FB5391EF9001B1E50B
:1018EB00C9F0E02402F09001ABE0FBA3E0FAA3E027
:1018FB00F9EA494B60121227AB9001ABE0FBA3E076
:10190B00FAA3E0F9EF120EDB74FF9001B4F0A3F031
:10191B009001B1E0FF14F0EF70030219BFE59130B5
:10192B00E4FB5391EF9001B2E5C9F09001B1E0C334
:10193B009402402B9001AAE060259001B2E0FF9049
:10194B0001A7E0FBA3E475F001120F7AA9F0FAEFFF
:10195B00120EDB9001B0E004F09001AAE014F0E469
:10196B009001B3F09001B3E0C3940850A3A3E0FC43
:10197B00A3E0FDEC5480FF9001B2E0F95480FBEF43
:10198B006B6017ED25E0FFEC336410FEEF6421FF75
:10199B009001B4EEF0A3EFF0800D9001B5E025E0DF
:1019AB00F09001B4E033F0E925E09001B2F0A3E050
:1019BB0004F080B09001B4E07002A3E06005E49005
:1019CB0001B0F053A9F7E4F5D39001B0E0FF22D2B8
:1019DB00A17C287D247A017B537F0112148D900109
:1019EB00AA7440F0A3E4F0A3F0A3F0A37439F0A31E
:1019FB00749AF07B017A0179597F0A12185790017A
:101A0B0058EFF060CC900159E0900152F06039240E
:101A1B00C0603C24C0602824F0602D24F0601724A3
:101A2B00DF7003021AB324E46003021B397B017AD3
:101A3B00017959021C9A7B017A017959021B407B6F
:101A4B00017A0179590224B69000907404F0227B3C
:101A5B00017A017959900088EBF0A3EAF0A3E9F041
:101A6B00900001120FBBFF900156E065F07003A3CD
:101A7B00E06F6003021B397C287D247A017B537F46
:101A8B000212148D7B017A00799D9001AA740CF0DF
:101A9B007F071221FD7C287D247A017B537F011265
:101AAB00148D0219DC021B397B017A0179599000E4
:101ABB0085EBF0A3EAF0A3E9F0900001120FBBFF56
:101ACB00900156E0B5F029A3E0B50724900136E06C
:101ADB007002A3E0700A900138E07002A3E0600886
:101AEB009000907403F0800E9000907406F08006C6
:101AFB00E4900090F0227B017A0179407D027C001A
:101B0B0012252A7C287D247A017B537F0212148DA7
:101B1B007B017A0179409001AA7402F07F071221B0
:101B2B00FD7C287D247A017B537F0102148D90006C
:101B3B00907401F0229001A6EBF0A3EAF0A3E9F078
:101B4B00E49001AFF0A3F0C2019001A6E0FBA3E08B
:101B5B00FAA3E0F9900003120EAE14601A14603170
:101B6B0014603E240370489001AA7401F0A3740121
:101B7B00F0A37432F080389001AA7401F0A37400C2
:101B8B00F0A3749DF09001ABE475F004120F648028
:101B9B001E9001AA7401F0A37400F0A374AEF08040
:101BAB000E9001AA7401F0A37400F0A374AAF09034
:101BBB0001A6E0FBA3E0FAA3E02405F9E43AFA124C
:101BCB000E95C313120EDBE49001A9F09001A6E071
:101BDB00FBA3E0FAA3E0F9900005120EAEFF900113
:101BEB00A9E0C39F507BA3E0FBA3E0FAA3E0F912AB
:101BFB000F90FFAEF09001ADEEF0A3EFF09001A6C9
:101C0B00E0FBA3E0FAA3E02406F9E43AFAA3E075BB
:101C1B00F002A4F58285F083120FBBFDEE55F0FEAA
:101C2B00EF5DFF9001ADEEF0A3EFF09001AAE0FBAA
:101C3B00A3E0FAA3E0F9120F90B50712EEB5F00E80
:101C4B009001B0E004F070069001AFE004F0900159
:101C5B00ABE475F002120F649001A9E004F0021BD3
:101C6B00D79001A6E0FBA3E0FAA3E0F990000512E0
:101C7B000EAEFF9001AFE0B40010A3E0B5070B90E0
:101C8B0000907404F0D202D29422C202C294229029
:101C9B0001A6EBF0A3EAF0A3E9F0E49001ADF0A309
:101CAB00F0C2019001A6E0FBA3E0FAA3E0F99000DB
:101CBB0003120EAE14601A14603114603E240370CC
:101CCB00489001AA7401F0A37401F0A37432F08060
:101CDB00389001AA7401F0A37400F0A3749DF090E6
:101CEB0001ABE475F004120F64801E9001AA74011D
:101CFB00F0A37400F0A374AEF0800E9001AA7401EF
:101D0B00F0A37400F0A374AAF09001A6E0FBA3E08B
:101D1B00FAA3E02405F9E43AFA120E95C313120E56
:101D2B00DBE49001A9F09001A6E0FBA3E0FAA3E0AD
:101D3B00F9900005120EAEFF9001A9E0FEC39F5073
:101D4B004CE92406F9E43AFA75F002EEA4F5828523
:101D5B00F083120FBBFFAEF09001AAE0FBA3E0FAF9
:101D6B00A3E0F9120F90B50712EEB5F00E9001AE8D
:101D7B00E004F070069001ADE004F09001ABE47567
:101D8B00F002120F649001A9E004F080999001A673
:101D9B00E0FBA3E0FAA3E0F9900005120EAEFF9072
:101DAB0001ADE0B40010A3E0B5070B9000907404F4
:101DBB00F0D202D29422C202C29422D2947C287D09
:101DCB00247A017B537F0112148D7B017A017956A2
:101DDB007D027C0012252A9001AA7440F0A3E4F046
:101DEB00A3F0A3F0A37439F0A3749AF07B017A01EA
:101DFB0079597F0A121857900158EFF060D990016A
:101E0B0059E0900152F0602E2480602124F0607B19
:101E1B0024F0601024C36003021EE57B017A017974
:101E2B0059021C9A7B017A017959021B407B017A7A
:101E3B000179590224B6900083E07002A3E0703A56
:101E4B00900083747FF0A374FFF07C287D247A01CB
:101E5B007B537F0212148D7B017A0179569001AA74
:101E6B007402F07F071221FD7C287D247A017B53BD
:101E7B007F0112148D900090805C900084E024FF11
:101E8B00F0900083E034FFF0021DE27B017A0179D0
:101E9B0059900145EBF0A3EAF0A3E9F09000021290
:101EAB000EAE24FD600C24FD70149000A9E004F02C
:101EBB00800C9000A9E0C394024003E014F0900062
:101ECB00A9E0FF12270F900083EEF0A3EFF04E90E6
:101EDB000090600280077405F0229000907401F06E
:101EEB00228F828E83740393F5CC8F828E8374043E
:101EFB0093F5CB8F828E83740593F5CA8F828E8375
:101F0B00740693F5CF8F828E83740793F5CE8F82F1
:101F1B008E83740893F5CD8F828E83740B93F5E3C8
:101F2B0075E526E4F5FEF5FFC2CEC2CB8F828E831C
:101F3B00740D93F5E143E5807BFE7A7FE5E520E3C5
:101F4B0012D3EB9400EA648094804007EB1B70EC97
:101F5B001A80E953E57F7A7F7BFEE5E420E012D31C
:101F6B00EB9400EA648094804007EB1B70EC1A80C2
:101F7B00E98D828C83E5F9F0A3E5FBF08F828E83EC
:101F8B00740C93F5E3D2CE8F828E83740E93F5E1AE
:101F9B00E4F5E275FF3B43E5807A7F7BFEE5E520C8
:101FAB00E312D3EB9400EA648094804007EB1B7040
:101FBB00EC1A80E953E57F7A7F7BFEE5E420E012A3
:101FCB00D3EB9400EA648094804007EB1B70EC1A0F
:101FDB0080E98D828C83A3A3E5F9F075C838E49072
:101FEB0001B6F09001B8F09001BAF09001B7F09003
:101FFB0001B9F022D2827C287D247A017B537F01A8
:10200B0012148D9001AA7440F0A3E4F0A3F0A3F096
:10201B00A37439F0A3749AF07B017A0179597F0A82
:10202B00121857900158EFF060CC900159E09001D5
:10203B0052F024C0606024C0602124F0601D24F0A5
:10204B00601024C360030220F97B017A01795902E5
:10205B001C9A7B017A017959021B407B017A017929
:10206B00567D027C0012252A7C287D247A017B5325
:10207B007F0212148D7B017A0179569001AA7402AA
:10208B00F07F071221FD7C287D247A017B537F0191
:10209B0012148D0220017B017A017959900088EB93
:1020AB00F0A3EAF0A3E9F0900001120FBBFF90013F
:1020BB0056E065F07003A3E06F70337C287D247AC3
:1020CB00017B537F0212148D7B017A00799D900165
:1020DB00AA740CF07F071221FD7C287D247A017BEA
:1020EB00537F0112148DE4900090F0228000900039
:1020FB00907401F0227A0079B27B01E4F5F0120FB3
:10210B00F3740229F9E43AFA900132E0FFA3E0CF2D
:10211B008FF0120FF3740229F9E43AFA900134E0CC
:10212B00FFA3E0CF8FF0120FF3740229F9E43AFA10
:10213B00900136E0FFA3E0CF8FF0120FF37402296A
:10214B00F9E43AFA900138E0FFA3E0CF8FF0120FD9
:10215B00F3740229F9E43AFAE4FFEF25E024A1F540
:10216B0082E43400F583E0FDA3E0CD8DF0120FF394
:10217B00740229F9E43AFA0FEFB404DEE4FFEF2519
:10218B00E024AEF582E43400F583E0FDA3E0CD8DD1
:10219B00F0120FF3740229F9E43AFA0FEFB402DEEE
:1021AB00E4FFEF25E024AAF582E43400F583E0FD9B
:1021BB00A3E0CD8DF0120FF3740229F9E43AFA0F74
:1021CB00EFB402DE53AF9F78007C007D017B017A78
:1021DB000079B27E007F80120E6F7E457F007C00FF
:1021EB007D007B9A7A391222F8E5AF549F4440F573
:1021FB00AF229001A7EBF0A3EAF0A3E9F043C201F1
:10220B0075C9AA5391EF53C8EF1FEF600DE59130DD
:10221B00E4FB75C9AA5391EF80EFE59130E4FB75B0
:10222B00C95A5391EFE59130E4FB9001AAE0F5C94F
:10223B005391EF74FF9001ADF0A3F09001AAE0FF72
:10224B0014F0EF60789001A7E0FBA3E475F00112A6
:10225B000F7AA9F0FA120E959001ABF0E59130E4EC
:10226B00FB9001ABE0F5C95391EFE4A3F09001AC07
:10227B00E0C3940850C5A3E0FCA3E0FDEC5480FF41
:10228B009001ABE0F95480FBEF6B6017ED25E0FF9D
:10229B00EC336410FEEF6421FF9001ADEEF0A3EF81
:1022AB00F0800D9001AEE025E0F09001ADE033F051
:1022BB00E925E09001ABF0A3E004F080B0E59130AC
:1022CB00E4FB9001ADE0F5C95391EFE59130E4FBF0
:1022DB009001AEE0F5C95391EFE59130E4FBE4F5E5
:1022EB00C95391EFE59130E4FB53C2FE2290019E5E
:1022FB00ECF0A3EDF090019CEEF0A3EFF0547F70A7
:10230B000DA3E0FEA3E0FFFDAC06547F60037F004E
:10231B0022EA75F00384F5DD90019CE0FEA3E078E2
:10232B0007CEC313CE13D8F9F5AEEDAE047807CEB6
:10233B00C313CE13D8F9540FFFE5AF54F04F44102D
:10234B00F5AFA2AFC2AFD2DD43E78043870153E7BE
:10235B007F92AF53AFEFE4FF90019EE0FCA3E02F21
:10236B00F582E43CF583E0FE90019CE0FCA3E02FBA
:10237B00F582E43CF583E4936E60037F00220FEF5C
:10238B00B480D57F0122900199EBF0A3EAF0A3E989
:10239B00F0A3ECF0A3EDF0E49001A0F0A3F090011A
:1023AB009CE0FEA3E0FFC39001A1E09F9001A0E0A1
:1023BB009E5063900199E0FBA3E475F001120F7A34
:1023CB00A9F0FA120E95FDE4FC90019EE05480A357
:1023DB00FFED5480FBEF6B6017E025E0FF90019E53
:1023EB00E0336410FEEF6421FFEEF0A3EFF0800DFD
:1023FB0090019FE025E0F090019EE033F0ED25E0A9
:10240B00FD0CECB408C39001A1E004F070909001B6
:10241B00A0E004F0808890019EE0FEA3E0FF22780C
:10242B007FE4F6D8FD75812002247102275DE493C9
:10243B00A3F8E493A34003F68001F208DFF48029AC
:10244B00E493A3F85407240CC8C333C4540F44209B
:10245B00C8834004F456800146F6DFE4800B01028A
:10246B0004081020408090281FE47E019360BCA3D9
:10247B00FF543F30E509541FFEE493A360010ECFD8
:10248B0054C025E060A840B8E493A3FAE493A3F802
:10249B00E493A3C8C582C8CAC583CAF0A3C8C582C2
:1024AB00C8CAC583CADFE9DEE780BE300270900080
:1024BB0007120EAEFF9000A9F012270F900083EECB
:1024CB00F0A3EFF04E703E7B017A0179567D02FC52
:1024DB0012252A7C287D247A017B537F0212148DCE
:1024EB007B017A0179569001AA7402F07F071221C1
:1024FB00FD7C287D247A017B537F0112148D900083
:10250B00907405F022D3900084E09400900083E057
:10251B00940090009040047401F0227404F0229017
:10252B0001AAEBF0A3EAF0A3E9F0A3ECF0A3EDF022
:10253B0075C702C2CD7D147C00ED1D70011CED4CE6
:10254B0070F79001AD74FFF5F0120F7A45F060391A
:10255B00E49001AFF0FC7D089001AFE025E0FFE5D2
:10256B00C754014FF0ED1D70011CED4C70EA90014A
:10257B00AFE0FF9001AAE0FBA3E475F001120F7A24
:10258B00A9F0FAEF120EDB80B9E4F5C7D2CD22D257
:10259B00A07C287D247A017B537F0112148D90013E
:1025AB00AA7440F0A3E4F0A3F0A3F0A37439F0A352
:1025BB00749AF07B017A0179597F0A1218579001AE
:1025CB0058EFF060CC900159E0900152F0248060FC
:1025DB001A24E0600D24C3701B7B017A0179590228
:1025EB001C9A7B017A017959021B407B017A017994
:1025FB00590224B69000907404F02290FFFE121141
:10260B00EBECF0A3EDF090FFFF1211EBEFF090FF6E
:10261B00FC1211EB90000512120FE0FEA3E0FFFB82
:10262B00AA06E4F9F890000412120FE0FFE4FCFD97
:10263B00FE121012E47BC0FAF9F812109D85088384
:10264B0085098212118885088385098274FF12110E
:10265B0055EC4D4E4F70EF9000070211EB90009030
:10266B007404F043D21053D2F7538EF8E5AF549F56
:10267B004440F5AF7E287F247C017D53121EEC5322
:10268B00A6FE53A5EF53A4FB53A6FD12003612165C
:10269B00B87B017A0079A174FF90019EF0A3F07DC5
:1026AB00047C0012239190009DEEF0A3EFF0C20288
:1026BB00229001BBECF0A3EDF0AB07E4FD9001BB66
:1026CB00E05480FFEB5480F582EF65829001BC6093
:1026DB0017E025E0FF9001BBE0336410FEEF6421AF
:1026EB00FFEEF0A3EFF0800AE025E0F09001BBE0F5
:1026FB0033F0EB25E0FB0DEDB408C29001BBE0FE1F
:10270B00A3E0FF22E49001A6F0A3F0A3F0A304F052
:10271B009001A8E0FEA3E0A807088005C333CE33E1
:10272B00CED8F9F0EE9001A8F07B017A0179A67D65
:10273B00027C0012252A9001A6E0FEA3E0FFA3E095
:10274B00FCA3E0FD120F0F9001A6ECF0FEA3EDF041
:10275B00FF22122668900090E0B40700503D9027AE
:10276B0070F828287302279402278A0227A30227CE
:10277B009902278502278F02279E12259A801C1209
:10278B001DC68017121FFF80121219DA800D12005E
:10279B004E800812077F800312000312003680B5AB
:1027AB0043EE0275960375930A7C397D9A7FC812A6
:1027BB002606439304E59320E2FBE5941313543F61
:1027CB00FFE59575F040A44F43938075F037A4E572
:1027DB00F0FFC374CE9FFF225391DF801753917F7D
:1027EB0080125391EF800D5391BF800853C3DF804C
:1027FB00035396BFB2A03280085391DF3253917FBF
:10280B0032C2DC325391EF325391BF3253C3DF32BA
:10281B005396BF324101510000A92F2ACC60005EB4
:0C282B00450301AB68306CF3320A00007A
:00000001FF
